{
  "contractName": "VotingSystem",
  "abi": [
    {
      "inputs": [],
      "stateMutability": "nonpayable",
      "type": "constructor"
    },
    {
      "anonymous": false,
      "inputs": [
        {
          "indexed": true,
          "internalType": "uint256",
          "name": "candidateId",
          "type": "uint256"
        },
        {
          "indexed": false,
          "internalType": "address",
          "name": "voter",
          "type": "address"
        }
      ],
      "name": "VoteCasted",
      "type": "event"
    },
    {
      "inputs": [
        {
          "internalType": "string",
          "name": "",
          "type": "string"
        }
      ],
      "name": "candidateIdByParty",
      "outputs": [
        {
          "internalType": "uint256",
          "name": "",
          "type": "uint256"
        }
      ],
      "stateMutability": "view",
      "type": "function"
    },
    {
      "inputs": [
        {
          "internalType": "uint256",
          "name": "",
          "type": "uint256"
        }
      ],
      "name": "candidates",
      "outputs": [
        {
          "internalType": "string",
          "name": "party",
          "type": "string"
        },
        {
          "internalType": "string",
          "name": "name",
          "type": "string"
        },
        {
          "internalType": "uint256",
          "name": "voteCount",
          "type": "uint256"
        }
      ],
      "stateMutability": "view",
      "type": "function"
    },
    {
      "inputs": [
        {
          "internalType": "address",
          "name": "",
          "type": "address"
        }
      ],
      "name": "hasVoted",
      "outputs": [
        {
          "internalType": "bool",
          "name": "",
          "type": "bool"
        }
      ],
      "stateMutability": "view",
      "type": "function"
    },
    {
      "inputs": [
        {
          "internalType": "string",
          "name": "_party",
          "type": "string"
        }
      ],
      "name": "castVote",
      "outputs": [],
      "stateMutability": "nonpayable",
      "type": "function"
    },
    {
      "inputs": [],
      "name": "getCandidateCount",
      "outputs": [
        {
          "internalType": "uint256",
          "name": "",
          "type": "uint256"
        }
      ],
      "stateMutability": "view",
      "type": "function"
    },
    {
      "inputs": [
        {
          "internalType": "uint256",
          "name": "_candidateId",
          "type": "uint256"
        }
      ],
      "name": "getCandidate",
      "outputs": [
        {
          "internalType": "string",
          "name": "",
          "type": "string"
        },
        {
          "internalType": "uint256",
          "name": "",
          "type": "uint256"
        }
      ],
      "stateMutability": "view",
      "type": "function"
    }
  ],
  "bytecode": "0x608060405234801562000010575f80fd5b506200008d6040518060400160405280600381526020017f41504300000000000000000000000000000000000000000000000000000000008152506040518060400160405280600681526020017f54696e75627500000000000000000000000000000000000000000000000000008152506200018b60201b60201c565b620001096040518060400160405280600381526020017f50445000000000000000000000000000000000000000000000000000000000008152506040518060400160405280600581526020017f4174696b750000000000000000000000000000000000000000000000000000008152506200018b60201b60201c565b620001856040518060400160405280600281526020017f4c500000000000000000000000000000000000000000000000000000000000008152506040518060400160405280600981526020017f5065746572204f626900000000000000000000000000000000000000000000008152506200018b60201b60201c565b62000605565b5f6002805490509050600260405180606001604052808581526020018481526020015f815250908060018154018082558091505060019003905f5260205f2090600302015f909190919091505f820151815f019081620001ec91906200049f565b5060208201518160010190816200020491906200049f565b5060408201518160020155505080600184604051620002249190620005ed565b908152602001604051809103902081905550505050565b5f81519050919050565b7f4e487b71000000000000000000000000000000000000000000000000000000005f52604160045260245ffd5b7f4e487b71000000000000000000000000000000000000000000000000000000005f52602260045260245ffd5b5f6002820490506001821680620002b757607f821691505b602082108103620002cd57620002cc62000272565b5b50919050565b5f819050815f5260205f209050919050565b5f6020601f8301049050919050565b5f82821b905092915050565b5f60088302620003317fffffffffffffffffffffffffffffffffffffffffffffffffffffffffffffffff82620002f4565b6200033d8683620002f4565b95508019841693508086168417925050509392505050565b5f819050919050565b5f819050919050565b5f62000387620003816200037b8462000355565b6200035e565b62000355565b9050919050565b5f819050919050565b620003a28362000367565b620003ba620003b1826200038e565b84845462000300565b825550505050565b5f90565b620003d0620003c2565b620003dd81848462000397565b505050565b5b818110156200040457620003f85f82620003c6565b600181019050620003e3565b5050565b601f82111562000453576200041d81620002d3565b6200042884620002e5565b8101602085101562000438578190505b620004506200044785620002e5565b830182620003e2565b50505b505050565b5f82821c905092915050565b5f620004755f198460080262000458565b1980831691505092915050565b5f6200048f838362000464565b9150826002028217905092915050565b620004aa826200023b565b67ffffffffffffffff811115620004c657620004c562000245565b5b620004d282546200029f565b620004df82828562000408565b5f60209050601f83116001811462000515575f841562000500578287015190505b6200050c858262000482565b8655506200057b565b601f1984166200052586620002d3565b5f5b828110156200054e5784890151825560018201915060208501945060208101905062000527565b868310156200056e57848901516200056a601f89168262000464565b8355505b6001600288020188555050505b505050505050565b5f81905092915050565b5f5b83811015620005ac5780820151818401526020810190506200058f565b5f8484015250505050565b5f620005c3826200023b565b620005cf818562000583565b9350620005e18185602086016200058d565b80840191505092915050565b5f620005fa8284620005b7565b915081905092915050565b610d0280620006135f395ff3fe608060405234801561000f575f80fd5b5060043610610060575f3560e01c806309eef43e1461006457806330a56347146100945780633477ee2e146100b257806335b8e820146100e45780633c2f70f9146101155780639cc2d99314610145575b5f80fd5b61007e600480360381019061007991906106cc565b610161565b60405161008b9190610711565b60405180910390f35b61009c61017d565b6040516100a99190610742565b60405180910390f35b6100cc60048036038101906100c79190610785565b610189565b6040516100db9392919061083a565b60405180910390f35b6100fe60048036038101906100f99190610785565b6102ca565b60405161010c92919061087d565b60405180910390f35b61012f600480360381019061012a91906109d7565b61047f565b60405161013c9190610742565b60405180910390f35b61015f600480360381019061015a91906109d7565b6104ac565b005b5f602052805f5260405f205f915054906101000a900460ff1681565b5f600280549050905090565b60028181548110610198575f80fd5b905f5260205f2090600302015f91509050805f0180546101b790610a4b565b80601f01602080910402602001604051908101604052809291908181526020018280546101e390610a4b565b801561022e5780601f106102055761010080835404028352916020019161022e565b820191905f5260205f20905b81548152906001019060200180831161021157829003601f168201915b50505050509080600101805461024390610a4b565b80601f016020809104026020016040519081016040528092919081815260200182805461026f90610a4b565b80156102ba5780601f10610291576101008083540402835291602001916102ba565b820191905f5260205f20905b81548152906001019060200180831161029d57829003601f168201915b5050505050908060020154905083565b60605f6002805490508310610314576040517f08c379a000000000000000000000000000000000000000000000000000000000815260040161030b90610ac5565b60405180910390fd5b5f6002848154811061032957610328610ae3565b5b905f5260205f2090600302016040518060600160405290815f8201805461034f90610a4b565b80601f016020809104026020016040519081016040528092919081815260200182805461037b90610a4b565b80156103c65780601f1061039d576101008083540402835291602001916103c6565b820191905f5260205f20905b8154815290600101906020018083116103a957829003601f168201915b505050505081526020016001820180546103df90610a4b565b80601f016020809104026020016040519081016040528092919081815260200182805461040b90610a4b565b80156104565780601f1061042d57610100808354040283529160200191610456565b820191905f5260205f20905b81548152906001019060200180831161043957829003601f168201915b505050505081526020016002820154815250509050806020015181604001519250925050915091565b6001818051602081018201805184825260208301602085012081835280955050505050505f915090505481565b5f6001826040516104bd9190610b4a565b90815260200160405180910390205490505f8111610510576040517f08c379a000000000000000000000000000000000000000000000000000000000815260040161050790610baa565b60405180910390fd5b5f803373ffffffffffffffffffffffffffffffffffffffff1673ffffffffffffffffffffffffffffffffffffffff1681526020019081526020015f205f9054906101000a900460ff1615610599576040517f08c379a000000000000000000000000000000000000000000000000000000000815260040161059090610c12565b60405180910390fd5b600281815481106105ad576105ac610ae3565b5b905f5260205f2090600302016002015f8154809291906105cc90610c5d565b919050555060015f803373ffffffffffffffffffffffffffffffffffffffff1673ffffffffffffffffffffffffffffffffffffffff1681526020019081526020015f205f6101000a81548160ff021916908315150217905550807fd8d46ecf72f6103ff400e47d1b5fdfe248d4ca34a4acd39f63fbe903c8f7e7bd336040516106559190610cb3565b60405180910390a25050565b5f604051905090565b5f80fd5b5f80fd5b5f73ffffffffffffffffffffffffffffffffffffffff82169050919050565b5f61069b82610672565b9050919050565b6106ab81610691565b81146106b5575f80fd5b50565b5f813590506106c6816106a2565b92915050565b5f602082840312156106e1576106e061066a565b5b5f6106ee848285016106b8565b91505092915050565b5f8115159050919050565b61070b816106f7565b82525050565b5f6020820190506107245f830184610702565b92915050565b5f819050919050565b61073c8161072a565b82525050565b5f6020820190506107555f830184610733565b92915050565b6107648161072a565b811461076e575f80fd5b50565b5f8135905061077f8161075b565b92915050565b5f6020828403121561079a5761079961066a565b5b5f6107a784828501610771565b91505092915050565b5f81519050919050565b5f82825260208201905092915050565b5f5b838110156107e75780820151818401526020810190506107cc565b5f8484015250505050565b5f601f19601f8301169050919050565b5f61080c826107b0565b61081681856107ba565b93506108268185602086016107ca565b61082f816107f2565b840191505092915050565b5f6060820190508181035f8301526108528186610802565b905081810360208301526108668185610802565b90506108756040830184610733565b949350505050565b5f6040820190508181035f8301526108958185610802565b90506108a46020830184610733565b9392505050565b5f80fd5b5f80fd5b7f4e487b71000000000000000000000000000000000000000000000000000000005f52604160045260245ffd5b6108e9826107f2565b810181811067ffffffffffffffff82111715610908576109076108b3565b5b80604052505050565b5f61091a610661565b905061092682826108e0565b919050565b5f67ffffffffffffffff821115610945576109446108b3565b5b61094e826107f2565b9050602081019050919050565b828183375f83830152505050565b5f61097b6109768461092b565b610911565b905082815260208101848484011115610997576109966108af565b5b6109a284828561095b565b509392505050565b5f82601f8301126109be576109bd6108ab565b5b81356109ce848260208601610969565b91505092915050565b5f602082840312156109ec576109eb61066a565b5b5f82013567ffffffffffffffff811115610a0957610a0861066e565b5b610a15848285016109aa565b91505092915050565b7f4e487b71000000000000000000000000000000000000000000000000000000005f52602260045260245ffd5b5f6002820490506001821680610a6257607f821691505b602082108103610a7557610a74610a1e565b5b50919050565b7f496e76616c69642063616e6469646174652049440000000000000000000000005f82015250565b5f610aaf6014836107ba565b9150610aba82610a7b565b602082019050919050565b5f6020820190508181035f830152610adc81610aa3565b9050919050565b7f4e487b71000000000000000000000000000000000000000000000000000000005f52603260045260245ffd5b5f81905092915050565b5f610b24826107b0565b610b2e8185610b10565b9350610b3e8185602086016107ca565b80840191505092915050565b5f610b558284610b1a565b915081905092915050565b7f496e76616c6964207061727479000000000000000000000000000000000000005f82015250565b5f610b94600d836107ba565b9150610b9f82610b60565b602082019050919050565b5f6020820190508181035f830152610bc181610b88565b9050919050565b7f416c726561647920766f746564000000000000000000000000000000000000005f82015250565b5f610bfc600d836107ba565b9150610c0782610bc8565b602082019050919050565b5f6020820190508181035f830152610c2981610bf0565b9050919050565b7f4e487b71000000000000000000000000000000000000000000000000000000005f52601160045260245ffd5b5f610c678261072a565b91507fffffffffffffffffffffffffffffffffffffffffffffffffffffffffffffffff8203610c9957610c98610c30565b5b600182019050919050565b610cad81610691565b82525050565b5f602082019050610cc65f830184610ca4565b9291505056fea2646970667358221220a403cb746cdd9b72285a8cc0e24ef1655a677337860113e4a0dee29981db651664736f6c63430008140033",
  "immutableReferences": {},
  "source": "// SPDX-License-Identifier: MIT\npragma solidity ^0.8.0;\n\ncontract VotingSystem {\n    struct Candidate {\n        string party;\n        string name;\n        uint256 voteCount;\n    }\n\n    mapping(address => bool) public hasVoted;\n    mapping(string => uint256) public candidateIdByParty;  // Added mapping to associate party with candidate ID\n    Candidate[] public candidates;\n\n    event VoteCasted(uint256 indexed candidateId, address voter);\n\n    constructor() {\n        addCandidate(\"APC\", \"Tinubu\");\n        addCandidate(\"PDP\", \"Atiku\");\n        addCandidate(\"LP\", \"Peter Obi\");\n    }\n\n    function addCandidate(string memory _party, string memory _name) internal {  // Modified to add candidate and associate party with candidate ID\n        uint256 candidateId = candidates.length;\n        candidates.push(Candidate(_party, _name, 0));\n        candidateIdByParty[_party] = candidateId;\n    }\n\n    function castVote(string memory _party) external {\n        uint256 candidateId = candidateIdByParty[_party];  // Modified to get candidate ID based on party\n        require(candidateId > 0, \"Invalid party\");  // Check if the party is valid\n        require(!hasVoted[msg.sender], \"Already voted\");\n\n        candidates[candidateId].voteCount++;\n        hasVoted[msg.sender] = true;\n\n        emit VoteCasted(candidateId, msg.sender);\n    }\n\n    function getCandidateCount() external view returns (uint256) {\n        return candidates.length;\n    }\n\n    function getCandidate(uint256 _candidateId) external view returns (string memory, uint256) {\n        require(_candidateId < candidates.length, \"Invalid candidate ID\");\n\n        Candidate memory candidate = candidates[_candidateId];\n        return (candidate.name, candidate.voteCount);\n    }\n}\n",
  "sourcePath": "C:\\Users\\Kolade\\Documents\\Work Space\\voting-dapp\\contracts\\VotingSystem.sol",
  "compiler": {
    "name": "solc",
    "version": "0.8.20+commit.a1b79de6.Emscripten.clang"
  },
  "schemaVersion": "3.4.14",
  "updatedAt": "2023-06-03T20:53:17.340Z",
  "devdoc": {
    "kind": "dev",
    "methods": {},
    "version": 1
  },
  "userdoc": {
    "kind": "user",
    "methods": {},
    "version": 1
  }
}