{
  "contractName": "VotingSystem",
  "abi": [
    {
      "inputs": [],
      "stateMutability": "nonpayable",
      "type": "constructor"
    },
    {
      "anonymous": false,
      "inputs": [
        {
          "indexed": true,
          "internalType": "uint256",
          "name": "candidateId",
          "type": "uint256"
        },
        {
          "indexed": false,
          "internalType": "address",
          "name": "voter",
          "type": "address"
        }
      ],
      "name": "VoteCasted",
      "type": "event"
    },
    {
      "inputs": [
        {
          "internalType": "string",
          "name": "",
          "type": "string"
        }
      ],
      "name": "candidateIdByParty",
      "outputs": [
        {
          "internalType": "uint256",
          "name": "",
          "type": "uint256"
        }
      ],
      "stateMutability": "view",
      "type": "function",
      "constant": true
    },
    {
      "inputs": [
        {
          "internalType": "uint256",
          "name": "",
          "type": "uint256"
        }
      ],
      "name": "candidates",
      "outputs": [
        {
          "internalType": "string",
          "name": "party",
          "type": "string"
        },
        {
          "internalType": "string",
          "name": "name",
          "type": "string"
        },
        {
          "internalType": "uint256",
          "name": "voteCount",
          "type": "uint256"
        }
      ],
      "stateMutability": "view",
      "type": "function",
      "constant": true
    },
    {
      "inputs": [
        {
          "internalType": "address",
          "name": "",
          "type": "address"
        }
      ],
      "name": "hasVoted",
      "outputs": [
        {
          "internalType": "bool",
          "name": "",
          "type": "bool"
        }
      ],
      "stateMutability": "view",
      "type": "function",
      "constant": true
    },
    {
      "inputs": [
        {
          "internalType": "string",
          "name": "_party",
          "type": "string"
        }
      ],
      "name": "castVote",
      "outputs": [],
      "stateMutability": "nonpayable",
      "type": "function"
    },
    {
      "inputs": [],
      "name": "getCandidateCount",
      "outputs": [
        {
          "internalType": "uint256",
          "name": "",
          "type": "uint256"
        }
      ],
      "stateMutability": "view",
      "type": "function",
      "constant": true
    },
    {
      "inputs": [
        {
          "internalType": "uint256",
          "name": "_candidateId",
          "type": "uint256"
        }
      ],
      "name": "getCandidate",
      "outputs": [
        {
          "internalType": "string",
          "name": "",
          "type": "string"
        },
        {
          "internalType": "uint256",
          "name": "",
          "type": "uint256"
        }
      ],
      "stateMutability": "view",
      "type": "function",
      "constant": true
    }
  ],
  "bytecode": "0x60806040523480156200001157600080fd5b506200008e6040518060400160405280600381526020017f41504300000000000000000000000000000000000000000000000000000000008152506040518060400160405280600681526020017f54696e75627500000000000000000000000000000000000000000000000000008152506200018c60201b60201c565b6200010a6040518060400160405280600381526020017f50445000000000000000000000000000000000000000000000000000000000008152506040518060400160405280600581526020017f4174696b750000000000000000000000000000000000000000000000000000008152506200018c60201b60201c565b620001866040518060400160405280600281526020017f4c500000000000000000000000000000000000000000000000000000000000008152506040518060400160405280600981526020017f5065746572204f626900000000000000000000000000000000000000000000008152506200018c60201b60201c565b62000402565b6000600280549050905060026040518060600160405280858152602001848152602001600081525090806001815401808255809150506001900390600052602060002090600302016000909190919091506000820151816000019080519060200190620001fb92919062000251565b5060208201518160010190805190602001906200021a92919062000251565b50604082015181600201555050806001846040516200023a919062000338565b908152602001604051809103902081905550505050565b8280546200025f906200039d565b90600052602060002090601f016020900481019282620002835760008555620002cf565b82601f106200029e57805160ff1916838001178555620002cf565b82800160010185558215620002cf579182015b82811115620002ce578251825591602001919060010190620002b1565b5b509050620002de9190620002e2565b5090565b5b80821115620002fd576000816000905550600101620002e3565b5090565b60006200030e8262000351565b6200031a81856200035c565b93506200032c81856020860162000367565b80840191505092915050565b600062000346828462000301565b915081905092915050565b600081519050919050565b600081905092915050565b60005b83811015620003875780820151818401526020810190506200036a565b8381111562000397576000848401525b50505050565b60006002820490506001821680620003b657607f821691505b60208210811415620003cd57620003cc620003d3565b5b50919050565b7f4e487b7100000000000000000000000000000000000000000000000000000000600052602260045260246000fd5b610d1b80620004126000396000f3fe608060405234801561001057600080fd5b50600436106100625760003560e01c806309eef43e1461006757806330a56347146100975780633477ee2e146100b557806335b8e820146100e75780633c2f70f9146101185780639cc2d99314610148575b600080fd5b610081600480360381019061007c9190610765565b610164565b60405161008e9190610981565b60405180910390f35b61009f610184565b6040516100ac9190610a71565b60405180910390f35b6100cf60048036038101906100ca91906107cf565b610191565b6040516100de9392919061099c565b60405180910390f35b61010160048036038101906100fc91906107cf565b6102db565b60405161010f9291906109e1565b60405180910390f35b610132600480360381019061012d919061078e565b6104bf565b60405161013f9190610a71565b60405180910390f35b610162600480360381019061015d919061078e565b6104ed565b005b60006020528060005260406000206000915054906101000a900460ff1681565b6000600280549050905090565b600281815481106101a157600080fd5b90600052602060002090600302016000915090508060000180546101c490610b9e565b80601f01602080910402602001604051908101604052809291908181526020018280546101f090610b9e565b801561023d5780601f106102125761010080835404028352916020019161023d565b820191906000526020600020905b81548152906001019060200180831161022057829003601f168201915b50505050509080600101805461025290610b9e565b80601f016020809104026020016040519081016040528092919081815260200182805461027e90610b9e565b80156102cb5780601f106102a0576101008083540402835291602001916102cb565b820191906000526020600020905b8154815290600101906020018083116102ae57829003601f168201915b5050505050908060020154905083565b606060006002805490508310610326576040517f08c379a000000000000000000000000000000000000000000000000000000000815260040161031d90610a51565b60405180910390fd5b600060028481548110610362577f4e487b7100000000000000000000000000000000000000000000000000000000600052603260045260246000fd5b906000526020600020906003020160405180606001604052908160008201805461038b90610b9e565b80601f01602080910402602001604051908101604052809291908181526020018280546103b790610b9e565b80156104045780601f106103d957610100808354040283529160200191610404565b820191906000526020600020905b8154815290600101906020018083116103e757829003601f168201915b5050505050815260200160018201805461041d90610b9e565b80601f016020809104026020016040519081016040528092919081815260200182805461044990610b9e565b80156104965780601f1061046b57610100808354040283529160200191610496565b820191906000526020600020905b81548152906001019060200180831161047957829003601f168201915b505050505081526020016002820154815250509050806020015181604001519250925050915091565b6001818051602081018201805184825260208301602085012081835280955050505050506000915090505481565b60006001826040516104ff919061094f565b908152602001604051809103902054905060008111610553576040517f08c379a000000000000000000000000000000000000000000000000000000000815260040161054a90610a31565b60405180910390fd5b6000803373ffffffffffffffffffffffffffffffffffffffff1673ffffffffffffffffffffffffffffffffffffffff16815260200190815260200160002060009054906101000a900460ff16156105df576040517f08c379a00000000000000000000000000000000000000000000000000000000081526004016105d690610a11565b60405180910390fd5b60028181548110610619577f4e487b7100000000000000000000000000000000000000000000000000000000600052603260045260246000fd5b9060005260206000209060030201600201600081548092919061063b90610bd0565b919050555060016000803373ffffffffffffffffffffffffffffffffffffffff1673ffffffffffffffffffffffffffffffffffffffff16815260200190815260200160002060006101000a81548160ff021916908315150217905550807fd8d46ecf72f6103ff400e47d1b5fdfe248d4ca34a4acd39f63fbe903c8f7e7bd336040516106c79190610966565b60405180910390a25050565b60006106e66106e184610abd565b610a8c565b9050828152602081018484840111156106fe57600080fd5b610709848285610b5c565b509392505050565b60008135905061072081610cb7565b92915050565b600082601f83011261073757600080fd5b81356107478482602086016106d3565b91505092915050565b60008135905061075f81610cce565b92915050565b60006020828403121561077757600080fd5b600061078584828501610711565b91505092915050565b6000602082840312156107a057600080fd5b600082013567ffffffffffffffff8111156107ba57600080fd5b6107c684828501610726565b91505092915050565b6000602082840312156107e157600080fd5b60006107ef84828501610750565b91505092915050565b61080181610b14565b82525050565b61081081610b26565b82525050565b600061082182610aed565b61082b8185610af8565b935061083b818560208601610b6b565b61084481610ca6565b840191505092915050565b600061085a82610aed565b6108648185610b09565b9350610874818560208601610b6b565b80840191505092915050565b600061088d600d83610af8565b91507f416c726561647920766f746564000000000000000000000000000000000000006000830152602082019050919050565b60006108cd600d83610af8565b91507f496e76616c6964207061727479000000000000000000000000000000000000006000830152602082019050919050565b600061090d601483610af8565b91507f496e76616c69642063616e6469646174652049440000000000000000000000006000830152602082019050919050565b61094981610b52565b82525050565b600061095b828461084f565b915081905092915050565b600060208201905061097b60008301846107f8565b92915050565b60006020820190506109966000830184610807565b92915050565b600060608201905081810360008301526109b68186610816565b905081810360208301526109ca8185610816565b90506109d96040830184610940565b949350505050565b600060408201905081810360008301526109fb8185610816565b9050610a0a6020830184610940565b9392505050565b60006020820190508181036000830152610a2a81610880565b9050919050565b60006020820190508181036000830152610a4a816108c0565b9050919050565b60006020820190508181036000830152610a6a81610900565b9050919050565b6000602082019050610a866000830184610940565b92915050565b6000604051905081810181811067ffffffffffffffff82111715610ab357610ab2610c77565b5b8060405250919050565b600067ffffffffffffffff821115610ad857610ad7610c77565b5b601f19601f8301169050602081019050919050565b600081519050919050565b600082825260208201905092915050565b600081905092915050565b6000610b1f82610b32565b9050919050565b60008115159050919050565b600073ffffffffffffffffffffffffffffffffffffffff82169050919050565b6000819050919050565b82818337600083830152505050565b60005b83811015610b89578082015181840152602081019050610b6e565b83811115610b98576000848401525b50505050565b60006002820490506001821680610bb657607f821691505b60208210811415610bca57610bc9610c48565b5b50919050565b6000610bdb82610b52565b91507fffffffffffffffffffffffffffffffffffffffffffffffffffffffffffffffff821415610c0e57610c0d610c19565b5b600182019050919050565b7f4e487b7100000000000000000000000000000000000000000000000000000000600052601160045260246000fd5b7f4e487b7100000000000000000000000000000000000000000000000000000000600052602260045260246000fd5b7f4e487b7100000000000000000000000000000000000000000000000000000000600052604160045260246000fd5b6000601f19601f8301169050919050565b610cc081610b14565b8114610ccb57600080fd5b50565b610cd781610b52565b8114610ce257600080fd5b5056fea264697066735822122041062e366a63fa6ed334012416a5fec8da9a92698cfeda564e3bd8f14116814f64736f6c63430008000033",
  "immutableReferences": {},
  "source": "// SPDX-License-Identifier: MIT\npragma solidity ^0.8.0;\n\ncontract VotingSystem {\n    struct Candidate {\n        string party;\n        string name;\n        uint256 voteCount;\n    }\n\n    mapping(address => bool) public hasVoted;\n    mapping(string => uint256) public candidateIdByParty;  // Added mapping to associate party with candidate ID\n    Candidate[] public candidates;\n\n    event VoteCasted(uint256 indexed candidateId, address voter);\n\n    constructor() {\n        addCandidate(\"APC\", \"Tinubu\");\n        addCandidate(\"PDP\", \"Atiku\");\n        addCandidate(\"LP\", \"Peter Obi\");\n    }\n\n    function addCandidate(string memory _party, string memory _name) internal {  // Modified to add candidate and associate party with candidate ID\n        uint256 candidateId = candidates.length;\n        candidates.push(Candidate(_party, _name, 0));\n        candidateIdByParty[_party] = candidateId;\n    }\n\n    function castVote(string memory _party) external {\n        uint256 candidateId = candidateIdByParty[_party];  // Modified to get candidate ID based on party\n        require(candidateId > 0, \"Invalid party\");  // Check if the party is valid\n        require(!hasVoted[msg.sender], \"Already voted\");\n\n        candidates[candidateId].voteCount++;\n        hasVoted[msg.sender] = true;\n\n        emit VoteCasted(candidateId, msg.sender);\n    }\n\n    function getCandidateCount() external view returns (uint256) {\n        return candidates.length;\n    }\n\n    function getCandidate(uint256 _candidateId) external view returns (string memory, uint256) {\n        require(_candidateId < candidates.length, \"Invalid candidate ID\");\n\n        Candidate memory candidate = candidates[_candidateId];\n        return (candidate.name, candidate.voteCount);\n    }\n}\n",
  "sourcePath": "C:\\Users\\Kolade\\Documents\\Work Space\\voting-dapp\\contracts\\VotingSystem.sol",
  "compiler": {
    "name": "solc",
    "version": "0.8.0+commit.c7dfd78e.Emscripten.clang"
  },
  "schemaVersion": "3.4.14",
  "updatedAt": "2023-06-06T15:22:01.139Z",
  "networkType": "ethereum",
  "devdoc": {
    "kind": "dev",
    "methods": {},
    "version": 1
  },
  "userdoc": {
    "kind": "user",
    "methods": {},
    "version": 1
  }
}